:06085300120859E4F590C3
:10085900E4FFFE758901758CF8758ACCD28C308DD0
:10086900FDC28CC28D0FBF00010EEF64FA4E70E31A
:01087900225C
:10080000E4F5901208597590CF1208597590A4120A
:1008100008597590B0120859759099120859759039
:10082000921208597590821208597590F81208535F
:100830007590981208597590881208537590C612D1
:1008400008597590C012085975908612085975900C
:030850008E80B0E7
:0300000002087A79
:0C087A00787FE4F6D8FD758107020800C5
:00000001FF
